S0150000554152545F52656365697665722E737265633F
S11300000C942A000C9447000C9447000C9447006D
S11300100C9447000C9447000C9447000C94470040
S11300200C9447000C9447000C9447000C94470030
S11300300C9447000C9447000C9447000C94470020
S11300400C9447000C9447000C9447000C94470010
S11300500C94470011241FBECFE5D8E0DEBFCDBF0E
S113006010E0A0E6B0E0E4ECFAE002C005900D92E6
S1130070AA37B107D9F710E0AAE7B0E001C01D9292
S1130080AA37B107E1F70E9488040C9460050C9428
S11300900000843409F471C0853448F4823499F141
S11300A0833408F04DC0813409F083C00FC0823618
S11300B051F1833620F4813609F07BC007C08336C2
S11300C009F43EC0843609F074C057C0413069F465
S11300D02AB381E090E0AC0102C0440F551F6A9539
S11300E0E2F7BA01622B6ABB08952AB381E090E07B
S11300F0AC0102C0440F551F6A95E2F7BA0160953E
S113010062236ABB0895413069F427B381E090E02B
S1130110AC0102C0440F551F6A95E2F7BA01622B85
S113012067BB089527B381E090E0AC0102C0440F9F
S1130130551F6A95E2F7BA016095622367BB08957B
S1130140413069F424B381E090E0AC0102C0440F73
S1130150551F6A95E2F7BA01622B64BB089524B374
S113016081E090E0AC0102C0440F551F6A95E2F7AC
S1130170BA016095622364BB0895413069F421B3E8
S113018081E090E0AC0102C0440F551F6A95E2F78C
S1130190BA01622B61BB089521B381E090E0AC0108
S11301A002C0440F551F6A95E2F7BA0160956223B5
S11301B061BB0895843409F471C0853448F48234F1
S11301C099F1833408F04DC0813409F083C00FC025
S11301D0823651F1833620F4813609F07BC007C0A2
S11301E0833609F43EC0843609F074C057C04130E8
S11301F069F42BB381E090E0AC0102C0440F551FB9
S11302006A95E2F7BA01622B6BBB08952BB381E0C8
S113021090E0AC0102C0440F551F6A95E2F7BA01A1
S1130220609562236BBB0895413069F428B381E083
S113023090E0AC0102C0440F551F6A95E2F7BA0181
S1130240622B68BB089528B381E090E0AC0102C042
S1130250440F551F6A95E2F7BA016095622368BBA3
S11302600895413069F425B381E090E0AC0102C007
S1130270440F551F6A95E2F7BA01622B65BB0895D6
S113028025B381E090E0AC0102C0440F551F6A958C
S1130290E2F7BA016095622365BB0895413069F4C1
S11302A022B381E090E0AC0102C0440F551F6A956F
S11302B0E2F7BA01622B62BB089522B381E090E0B9
S11302C0AC0102C0440F551F6A95E2F7BA0160956C
S11302D0622362BB0895843409F451C0853440F428
S11302E0823439F18334C0F5813409F05AC00EC028
S11302F08236F9F0833620F4813609F052C006C004
S1130300833651F1843609F04CC039C029B381E0F9
S113031090E0062E02C0880F991F0A94E2F730E09D
S11303208223932302C0959587956A95E2F7982FC7
S113033038C026B381E090E0062E02C0880F991FD2
S11303400A94E2F730E08223932302C095958795BF
S11303506A95E2F7982F25C023B381E090E0062E3A
S113036002C0880F991F0A94E2F730E08223932396
S113037002C0959587956A95E2F7982F12C020B32D
S113038081E090E0062E02C0880F991F0A94E2F7DC
S113039030E08223932302C0959587956A95E2F70E
S11303A0982F892F0895843409F43DC0853440F48E
S11303B08234F9F0833450F5813409F040C00CC024
S11303C08236B9F0833618F48136C9F505C0833610
S11303D0E9F08436A1F527C02BB381E090E0AC01AD
S11303E002C0440F551F6A95E2F7BA0162276BBB3E
S11303F0089528B381E090E0AC0102C0440F551F7A
S11304006A95E2F7BA01622768BB089525B381E0D3
S113041090E0AC0102C0440F551F6A95E2F7BA019F
S1130420622765BB089522B381E090E0AC0102C06D
S1130430440F551F6A95E2F7BA01622762BB08951B
S11304408434D9F0853438F4823499F0833498F4C0
S11304508134A1F40CC0823661F0833618F48136FD
S113046069F405C0833639F0843641F406C06ABBAA
S1130470089567BB089564BB089561BB08958434EF
S1130480D9F0853438F4823499F0833498F4813483
S1130490A1F40CC0823661F0833618F4813669F415
S11304A005C0833639F0843641F406C06BBB089529
S11304B068BB089565BB089562BB08958434E1F078
S11304C0853438F48234A1F08334A0F48134A9F45F
S11304D00CC0823669F0833618F4813671F405C095
S11304E0833641F0843649F407C090E099BB05C0D7
S11304F096B303C093B301C090B3892F0895843495
S113050009F1853438F48234A9F08334B8F48134A1
S1130510E1F40CC0823671F0833618F48136A9F404
S113052005C0833659F0843681F40CC08BB38095B2
S11305308BBB089588B3809588BB089585B3809557
S113054085BB089582B3809582BB0895843409F4F1
S113055071C0853448F4823499F1833408F04DC075
S1130560813409F083C00FC0823651F1833620F400
S1130570813609F07BC007C0833609F43EC0843657
S113058009F074C057C0413069F42BB381E090E0A6
S1130590AC0102C0440F551F6A95E2F7BA01622B01
S11305A06BBB08952BB381E090E0AC0102C0440F13
S11305B0551F6A95E2F7BA01609562236BBB0895F3
S11305C0413069F428B381E090E0AC0102C0440FEB
S11305D0551F6A95E2F7BA01622B68BB089528B3E8
S11305E081E090E0AC0102C0440F551F6A95E2F728
S11305F0BA016095622368BB0895413069F425B35C
S113060081E090E0AC0102C0440F551F6A95E2F707
S1130610BA01622B65BB089525B381E090E0AC017B
S113062002C0440F551F6A95E2F7BA016095622330
S113063065BB0895413069F422B381E090E0AC01D8
S113064002C0440F551F6A95E2F7BA01622B62BBE0
S1130650089522B381E090E0AC0102C0440F551F1D
S11306606A95E2F7BA016095622362BB089581E45A
S113067060E041E00E94DA0083EF91E00197F1F736
S113068000C0000081E460E040E00E94DA0083EFF3
S113069091E00197F1F700C0000008950F931F93B4
S11306A0CF93C82F062F462F417060E00E94DA00D6
S11306B010E0A80142705070559547958C2F61E069
S11306C00E94DA00A80144705070559547955595DD
S11306D047958C2F62E00E94DA0008701070A80120
S11306E05595479555954795559547958C2F63E0B6
S11306F00E94DA00CF911F910F9108950F931F93D9
S1130700CF93C82F062F462F417064E00E94DA0071
S113071010E0A80142705070559547958C2F65E004
S11307200E94DA00A801447050705595479555957C
S113073047958C2F66E00E94DA0008701070A801BB
S11307405595479555954795559547958C2F67E051
S11307500E94DA00CF911F910F910895CF93C82F73
S1130760682F62956F7081E40E947E0381E462E0E9
S113077040E00E94DA000E94370381E46C2F0E945B
S11307807E0381E462E040E00E94DA000E943703C5
S113079089EF90E00197F1F700C00000CF91089530
S11307A0282F2150223070F4613170F4662371F0E7
S11307B0813019F4962F91580AC0823041F4962F53
S11307C0915405C090E803C090E801C090E8892FD7
S11307D00E94AE0389EF90E00197F1F700C000009A
S11307E0089581E00E94AE0383EC99E00197F1F74C
S11307F000C0000008958FE493EC0197F1F700C066
S1130800000081E464E041E00E94490081E465E085
S113081041E00E94490081E466E041E00E94490011
S113082081E467E041E00E94490081E460E041E046
S11308300E94490081E461E041E00E94490081E4B2
S113084062E041E00E94490081E461E040E00E94EE
S1130850DA0082E00E94AE0383EC99E00197F1F79D
S113086000C0000088E20E94AE0389EF90E0019787
S1130870F1F700C000008EE00E94AE0389EF90E023
S11308800197F1F700C0000081E00E94AE0383EC01
S113089099E00197F1F700C0000086E00E94AE03E2
S11308A089EF90E00197F1F700C000000895CF931D
S11308B0C82F682F62956F7081E40E947E0381E4E3
S11308C062E041E00E94DA000E94370381E46C2F69
S11308D00E947E0381E462E041E00E94DA000E940B
S11308E0370389EF90E00197F1F700C00000CF9142
S11308F00895CF93DF93EC018881882331F021960A
S11309000E94570489918823D9F7DF91CF910895E4
S11309100E94FB0360E875E280E090E00E94D60448
S11309200F2EF0E6AF2EF0E0BF2EF02D0AE610E019
S11309300F2EFAE0EF2EFF24F02D0F2EF6E7CF2E28
S1130940F0E0DF2EF02D0E94FD04EC01009779F415
S11309500E94F103C5010E9479048FE996E8A1E0A1
S113096081509040A040E1F700C00000ECCF0E940D
S1130970F103C8010E947904CE01B7010E94170552
S1130980C82F862F805D0E9457048C2F805D0E94A3
S11309905704C6010E9479048FE996E8A1E08150CA
S11309A09040A040E1F700C00000CDCFDC01CB01B6
S11309B0880F991FAA1FBB1F880F991FAA1FBB1F4F
S11309C09C01AD01220F331F441F551F220F331FFB
S11309D0441F551F60E472E48FE090E00E942A05F2
S11309E02150304030BD29B9549A539A86E880BDCD
S11309F008955D9BFECF8CB908955F9BFECF8CB1AB
S1130A0090E00895CF93DF93EC018881882361F00F
S1130A1021960E94F90487EA91E60197F1F700C054
S1130A20000089918823A9F7DF91CF91089597FB5E
S1130A30092E07260AD077FD04D02ED006D0002038
S1130A401AF4709561957F4F0895F6F79095819506
S1130A509F4F0895A1E21A2EAA1BBB1BFD010DC0D6
S1130A60AA1FBB1FEE1FFF1FA217B307E407F5075A
S1130A7020F0A21BB30BE40BF50B661F771F881F36
S1130A80991F1A9469F760957095809590959B01CC
S1130A90AC01BD01CF010895AA1BBB1B51E107C0E6
S1130AA0AA1FBB1FA617B70710F0A61BB70B881FFA
S1130AB0991F5A95A9F780959095BC01CD01089589
S1070AC0F894FFCFD4
S1130AC44E6F204F626A6563740044697374616E87
S10D0AD46365203D2000436D00001F
S9030000FC
